:020000040800F2
:1000000020060020CD00000885110008450F0008DB
:1000100000000000000000000000000000000000E0
:10002000000000000000000000000000891100082E
:100030000000000000000000871100088B1100087C
:10004000DF00000800000000DF000008DF000008FB
:10005000DF000008DF000008DF0000085D01000885
:1000600000000000DF000008DF000008DF000008DB
:10007000DF000008DF000008DF00000800000000CB
:10008000DF000008DF000008DF000008DF000008D4
:10009000DF000008DF000008DF000008DF000008C4
:1000A000DF000008DF000008DF000008DF000008B4
:1000B000DF000008DF0000080348854600F03CF838
:1000C00000480047791400082006002004488047B3
:1000D00004480047FEE7FEE7FEE7FEE7FEE7FEE72F
:1000E00009120008B900000830B50B46014600208F
:1000F0002022012409E00D46D5409D4205D31D462E
:100100009540491B2546954040191546521E002D25
:10011000F1DC30BDD2B201E00270401C491EFBD2BE
:1001200070470022F6E710B513460A460446194602
:10013000FFF7F0FF204610BD064C0125064E05E0F6
:10014000E36807CC2B430C3C98471034B442F7D3F8
:10015000FFF7B6FF541500087415000810B52020ED
:1001600000F096F810BD7047F0B502460B4600202F
:1001700073E0012585402946194000296CD0394D8E
:100180008608B600AC598507EE0E0F25B5402C4009
:1001900005252D07AA4201D100250FE0324DAA42C4
:1001A00001D101250AE0314DAA4201D1022505E025
:1001B0002F4DAA4201D1032500E005258607F60E42
:1001C000B540A54222D1274D20352D688D43254EBF
:1001D0002036356035466D688D437560214D603D34
:1001E0002D688D431F4E603E356035466D688D43EA
:1001F00075608507EE0E0F25B5402C46194D860813
:10020000B600AE59A6438708BF00EE5115684700F7
:100210000326BE4035431560C508AE00154620359F
:10022000AD594607F70E0F26BE40B543C608B600C7
:1002300017462037BD51956847000326BE40B54399
:100240009560556801268640B5435560D5684700DE
:100250000326BE40B543D560401C1D46C540002D59
:1002600087D1F0BD60180240000400500008005023
:10027000000C005010B5044601F0E2F8002805D04B
:10028000202C03D101F092F800F05EFE10BD0000BA
:1002900010B504460A48C0682040002804D0084829
:1002A000C460204600F00EF8054800692040002890
:1002B00004D0034804612046FFF7DCFF10BD0000B6
:1002C0000018024010B5044601F0C8F8002801D01B
:1002D00000F0EDFF10BD000070B503460022D5E030
:1002E000012696400C683440002C71D04D68022DD8
:1002F00002D04D68122D15D1D508AE001D4620350F
:10030000A8595507EE0E0F25B5400646AE433046B8
:100310005607F60E0D69B5402843D508AD001E46B8
:1003200020367051186856000325B5400646AE4386
:1003300030460D79AD07AD0F5600B5402843186023
:100340004D68012D08D04D68022D05D04D68112D46
:1003500002D04D68122D18D1986856000325B5407B
:100360000646AE4330465600CD68B54028439860F7
:100370005868012595400646AE43304610264D6824
:1003800035402D09954028435860D868560003250C
:10039000B5400646AE43304656008D68B54028430A
:1003A000D860012636074D683540B5426DD13A4DCB
:1003B0009608B600A8599507EE0E0F25B5400646DB
:1003C000AE43304605252D07AB4202D1002510E093
:1003D0005BE0324DAB4201D101250AE0304DAB422A
:1003E00001D1022505E02F4DAB4201D1032500E0EC
:1003F00005259607F60EB5402843274D9608B6000A
:10040000A851254D203528680546A54328460126D4
:1004100036044D683540B54202D10546254328468D
:100420001D4D2035286068680546A54328460126ED
:1004300076044D683540B54202D10546254328462D
:10044000154D20356860144D603D28680546A5436C
:100450002846012636054D683540B54202D105468D
:10046000254328460C4D603D286068680546A54335
:100470002846012676054D683540B54202D105462D
:1004800025432846044D603D6860521C0D68D540E8
:10049000002D00D024E770BD601802400004005019
:1004A00000080050000C0050024613690B40002B5E
:1004B00001D0012000E000207047002A01D08161B6
:1004C00000E081627047000001480068704700004A
:1004D00004000020034800680349096840180149E6
:1004E00008607047040000200C00002010B50024B4
:1004F00008480068FF2101310843064908600020D0
:1005000000F00AF8002801D0012401E000F034F8DE
:10051000204610BD00200240F8B5044600251348CF
:10052000006800281ED0114801687D20C000FFF738
:10053000DBFD074639460E480068FFF7D5FD064645
:1005400000F0E4FC00280BD1042C07D20022214645
:10055000401E00F063F80748046004E0012502E053
:10056000012500E001252846F8BD00000C00002010
:10057000100000200800002008B500BF10480068E7
:10058000012108430E49086008460068C007C00FF3
:10059000009000BF00BF00BF09484038C06B89050C
:1005A000084307494039C8630846C06B090408403E
:1005B000009000BF00BF0320400200F09BFC08BD7C
:1005C000401002400146002915DBCB06DB0E01225C
:1005D0009A400A4B1A6000BF00BF00BFBFF34F8FA5
:1005E00000BF00BF00BF00BF00BF00BFBFF36F8FE1
:1005F00000BF00BF00BF00BF7047000080E100E007
:100600000146002905DBCB06DB0E01229A40024B96
:100610001A6000BF7047000000E100E070B50446BA
:100620000D4616462946204600F0F6FD70BD000036
:1006300070B50446114800680321490288432043ED
:100640000E4908604815844216D10D4909680622F2
:10065000514308460B49FFF747FD451C05E0002DB7
:1006600001D06D1E01E0032070BD044840690121E6
:10067000890208408842F2D00020F5E7007000406F
:100680001000002040420F0070B504460D46002CBB
:1006900001D1012070BD6B4800684007400FA8429F
:1006A00018D268480068C008C0002843654908603F
:1006B000FFF70AFF064607E0FFF706FF801B6249C7
:1006C000884201D90320E5E75E4800684007400FF3
:1006D000A842F1D1022120680840022815D1042146
:1006E00020680840042807D158488068072109037A
:1006F0008843401855498860544880680F21090292
:100700008843A1680843514988602078C007C00F1A
:10071000002854D06068012808D14C4800680121A5
:100720004904084000282ED10120B3E76068022860
:1007300008D146480068012149060840002822D116
:100740000120A7E76068002808D14048006801211F
:1007500089020840002816D101209BE76068032821
:1007600008D13A484030006A0221084000280AD1E6
:1007700001208FE735484030C06902210840002839
:1007800001D1012086E731488068C008C000616857
:1007900008432E498860FFF797FE064607E0FFF7FB
:1007A00093FE801B2849884201D9032072E727481D
:1007B0008068382108406168C9008842EFD121482B
:1007C00000684007400FA84218D91E480068C008BA
:1007D000C00028431B490860FFF776FE064607E085
:1007E000FFF772FE801B1849884201D9032051E7A8
:1007F000144800684007400FA842F1D10421206846
:100800000840042808D1114880680721090388435B
:10081000E16808430D49886000F020F80B498968B9
:100820000F2212021140090A8900094A515CC906C7
:10083000C90EC8400749086007480068FFF76CFE0A
:1008400028E700000020024088130000001002404A
:10085000F41400081000002008000020FEB5354800
:1008600080683821084000280DD13248006809020C
:100870000840C10A0120884000902F480099FFF7E6
:1008800033FC044654E02B4880683821084008288F
:1008900001D12A4C4CE027488068382108401028B4
:1008A00034D12448C0688607B60F2248C06870213A
:1008B00008400009401C0190022E0FD0032E0CD1DD
:1008C0001E480199FFF710FC1A49C9687F221202DD
:1008D0001140090A484305460DE000BF164801993A
:1008E000FFF702FC1349C9687F2212021140090A6E
:1008F0004843054600BF00BF0E48C068400F471C74
:1009000039462846FFF7F0FB044611E009488068A5
:1009100038210840202801D1840209E00548806878
:1009200038210840182802D17D24240200E0002448
:100930002046FEBD001002400024F40000127A00A0
:10094000FEB50446002C01D10120FEBD2078C00771
:10095000C00F00286FD0F748876838210F40C06863
:100960008607B60F102F01D1032E01D0082F0BD10F
:10097000F048006801214904084000285BD0606805
:10098000002858D10120E0E700BF01210904606878
:10099000884205D1E74800680843E649086021E03D
:1009A00005210904606888420ED1E24800680121EF
:1009B00089040843DF4908600846006801210904EA
:1009C0000843DC4908600DE0DA48006801210904A9
:1009D0008843D84908600846006801218904884393
:1009E000D449086000BF6068002812D0FFF76CFD92
:1009F000054606E0FFF768FD401B642801D9032087
:100A0000A3E7CC4800680121490408400028F1D040
:100A100011E0FFF759FD054606E0FFF755FD401BC5
:100A2000642801D9032090E7C248006801214904E5
:100A300008400028F1D1022120680840022873D123
:100A4000BC488068382108400746BA48C068860715
:100A5000B60F102F01D1022E01D0002F36D1B5488C
:100A60000068012189020840002804D0E0680028BD
:100A700001D1012069E7AF4840687F21090288431E
:100A8000616909020843AB494860002F16D1084646
:100A900000680721C902884321690843A549086005
:100AA000084600680722D2021040C20A0120904086
:100AB0000146A148FFF718FBA0490860A04800685C
:100AC000FFF72AFD002849D001203EE7E068002812
:100AD0002BD0984800680721C90288432169084340
:100AE00094490860084600688915084391490860E0
:100AF000FFF7EAFC054606E0FFF7E6FC401B02288C
:100B000001D9032021E78B480068012189020840B0
:100B10000028F1D0874840687F2109028843616935
:100B2000090208438349486018E082480068FF21B1
:100B3000013188437F490860FFF7C6FC054606E09F
:100B4000FFF7C2FC401B022801D90320FDE67948CB
:100B500000680121890208400028F1D1082120689D
:100B60000840082849D1734880683821084018286F
:100B70000BD170484030006A0221084000283CD068
:100B8000A069002839D10120DFE6A06900281AD029
:100B900068484030006A01210843664940310862D4
:100BA000FFF792FC054606E0FFF78EFC401B02288B
:100BB00001D90320C9E65F484030006A022108409D
:100BC0000028F1D019E05B484030006A400840003E
:100BD000584940310862FFF777FC054606E0FFF709
:100BE00073FC401B022801D90320AEE65148403077
:100BF000006A022108400028F1D104212068084041
:100C000004287CD1002001904A488068382108409F
:100C100020280BD147484030C069022108400028F5
:100C20006ED0A06800286BD101208EE64148C06BD1
:100C3000010F01208843002810D000BF3D48C06B41
:100C40000121090708433B49C8630846C06B0904F2
:100C50000840009000BF00BF0120019039480068A3
:100C6000FF2101310840002816D1364800680843AA
:100C700034490860FFF728FC054606E0FFF724FC2E
:100C8000401B022801D903205FE62E480068FF219F
:100C9000013108400028F1D000BFA068012808D128
:100CA00024484030C0690121084322494031C861CD
:100CB00020E0A06805280FD11E484030C0690421FB
:100CC00008431C494031C8610846C06901210843F6
:100CD00018494031C8610DE016484030C0694108EC
:100CE000490014484030C161C0690421884311495A
:100CF0004031C86100BFA068002816D001E040E084
:100D00003EE0FFF7E1FB054607E0FFF7DDFB401B98
:100D10000D49884201D9032017E606484030C069D2
:100D2000022108400028F0D01EE0FFF7CDFB054669
:100D300014E00000001002400024F4001000002025
:100D4000080000200070004088130000FFF7BCFB83
:100D5000401B6449884201D90320F6E56248C06916
:100D6000022108400028F1D10198012808D15E48ED
:100D70004038C06B0121090788435B494039C8638B
:100D800000BFE06900285AD05748403880683821B1
:100D9000084010287ED0E069022851D152484038DE
:100DA00000680121090688434F4940390860FFF770
:100DB0008BFB054606E0FFF787FB401B022801D9A5
:100DC0000320C2E548484038006801214906084030
:100DD0000028F0D1616A206A0843A16A0902084329
:100DE000E16A0843216B08433F494039C9683F4ADB
:100DF000114008433C494039C86008460068012159
:100E0000090608433849403908600846C0680904A3
:100E1000084335494039C860FFF756FB054606E0F0
:100E2000FFF752FB401B022801D903208DE52E4815
:100E3000403800680121490608400028F0D04EE003
:100E4000294840380068012109068843264940396D
:100E500008600846C06880088000C8600846C0680E
:100E60002349084020494039C860FFF72DFB05465B
:100E700007E0FFF729FB401B022802D9032064E5A5
:100E800008E0194840380068012149060840002858
:100E9000EFD124E0E069012800D156E5124840383E
:100EA000C668B107890F206A814216D17020304090
:100EB000616A884211D17F2000023040A16A090294
:100EC00088420AD11F2040043040E16A884204D1A0
:100ED000710F4907206B814201D0012035E50020C8
:100EE00033E5000088130000401002408C80C11FD1
:100EF000FFFFFEEF044909680322520291430143B8
:100F0000014A1160704700000000014070B50446BE
:100F10002546681E0949884201D901200CE0681E57
:100F2000074948610321081F00F076F900200449B1
:100F3000886107200861002070BD0000FFFFFF00EE
:100F400000E000E000BFFEE77CB51C49086800F047
:100F50009BFA04461AA000680190002500F032F8C0
:100F60000090002000F0B6F800F0F4F96946087827
:100F7000A12804D1042101A800F094F817E06846E4
:100F80000078A02813D10DE000F01CF8691C0D4674
:100F900060540A480068854202D100F0DBF905E0A0
:100FA00000F0CCF900F05AFA0028EDD000BF20463E
:100FB00000F09AF900F00EFA00207CBD000000203D
:100FC000000102030EB500210191029123E00220ED
:100FD00000F07EF9684600794006010E019113E0A9
:100FE00020211048FFF760FA00280DD0002000F003
:100FF00071F810210B48FFF757FA00906846017905
:1010000000780143019100E0EAE700BF6846007AFA
:10101000401CC1B202916846007A0828D7DB6846B6
:1010200000790EBD000800501CB504460021019156
:10103000009101912EE020788021084000906946BF
:101040000878002805D0012210211548FFF735FA4D
:1010500004E0002210211248FFF72FFA022000F0CE
:1010600037F9012220210E48FFF727FA022000F06D
:101070002FF9002220210A48FFF71FFA022000F072
:1010800027F920784006000E207068460079401C41
:10109000C1B20191684600790828CCDB1CBD000074
:1010A00000080050F8B504460D462646009509E0B4
:1010B00000997018FFF7B8FF00F05EF9002800D023
:1010C00000E004E00098411E00910028F0D100BF2C
:1010D0000020F8BD10B5044601222021052000079C
:1010E000FFF7EBF9204600F0F3F80022202105205D
:1010F0000007FFF7E2F910BD00B587B0142102A880
:10110000FFF70FF800BF1E48406B012108431C4940
:1011100048630846406BC007C00F019000BF00BF86
:1011200000BF0846406B0421084315494863084640
:10113000406B04210840019000BF00BF00BF104871
:10114000406B202108430E4948630846406B20212C
:101150000840019000BF00BF2020029001200390B2
:10116000002004900320059002A905200007FFF746
:10117000B3F800F04FF900F02DF907B000BD000002
:101180000010024070477047704710B5FFF7A2F992
:1011900010BD00B591B0342104A8FEF7C2FF0020B5
:1011A000009001900290039001204002FFF740FA66
:1011B00002200490C0010790002008904020099070
:1011C00002200B9002210C9100210D9108210E911B
:1011D00001040F910107109104A8FFF7B1FB00284B
:1011E00001D0FEF7C0FF07200090022001900020F0
:1011F0000290039002216846FFF746FA002801D0CA
:10120000FEF7B1FF11B000BD0120C00601498860A2
:101210007047000000ED00E010B5002819DB1A4A05
:1012200003231B02D21883089B00D2588307DC0ECD
:10123000FF23A3409A438B071B0E8407E40EA340B1
:101240001A43114B032424021B198408A4001A51C9
:1012500018E00E4A03071B0F083B9B089B00D2585F
:101260008307DC0EFF23A3409A438B071B0E8407E2
:10127000E40EA3401A43054B0407240F083CA408BE
:10128000A4001A5110BD000000E100E01CED00E0D8
:1012900002E008C8121F08C1002AFAD1704770473F
:1012A000002001E001C1121F002AFBD1704710B5D8
:1012B0000122202105200007FFF7FFF8022000F09F
:1012C00007F80022202105200007FFF7F6F810BDDF
:1012D00008B50C214143009100BF00994A1E0092BD
:1012E0000029FAD108BD000010B5002823D0124B08
:1012F0000022001F196803E0814203D80A464968AA
:101300000029F9D1002A0AD01368841A9C4204D11A
:10131000006818181060104602E0506000E0186085
:10132000002907D002680B1A934203D10B68D21828
:1013300002604968416010BD1400002010B5002211
:1013400010210348FFF7B9F80220FFF7C1FF10BDD5
:101350000008005010B5012210210648FFF7ADF833
:101360000220FFF7B5FF002210210248FFF7A5F881
:1013700010BD00000008005038B510210A48FFF7E2
:1013800093F8044620210848FFF78EF80440002C0B
:1013900007D00220FFF79CFF10210348FFF784F8D5
:1013A00000906846007838BD0008005010B5012153
:1013B000890205200007FEF7D7FE00BF2020044960
:1013C000C860086100BF0720FFF7FCF810BD0000EF
:1013D0000018024000B585B014216846FEF7A1FE52
:1013E00020200090094801900020029003200390E3
:1013F00069460748FEF770FF002211460720FFF7F5
:101400000DF90720FFF7FCF805B000BD0000211022
:101410000008005000B585B014216846FEF781FE33
:101420001020009000200190029003200390694654
:101430000248FEF751FF05B000BD00000008005053
:1014400010B510210448FFF72FF8002801D1012022
:1014500010BD0020FCE700000008005010B520215E
:101460000448FFF721F8002801D0012010BD00201A
:10147000FCE7000000080050FFF738F8FFF789FE8E
:10148000FFF73AFE00BFFEE7F0B50B30C108C90018
:10149000144F0026144A0FE003688B420BD38B4293
:1014A00005D95C1A4318456830C3083B00E043681F
:1014B000136002C004E0021D10680028ECD1304621
:1014C000002803D13868002801D00020F0BD064A6A
:1014D00006481060064A121AD208D20044C0012001
:1014E0003860D7E7180000201400002024000020F6
:1014F00020020020000000000000000000000000AA
:1015000000000000000000000000000000000000DB
:1015100000000000010000000200000003000000C5
:1015200004000000060000000700000008000000A2
:1015300009000000000000000000000000000000A2
:101540000000000001000000020000000300000095
:101550000400000074150008000000201C000000BA
:1015600090120008901500081C00002004060000DE
:10157000A01200080A0000000000000004000000A3
:10158000010000000024F400000000000000000042
:04000005080000B936
:00000001FF
