:020000040800F2
:1000000010040020CD000008450B0008590A000824
:1000100000000000000000000000000000000000E0
:10002000000000000000000000000000490B000874
:100030000000000000000000470B00084B0B000808
:10004000DF00000800000000DF000008DF000008FB
:10005000DF000008DF000008DF0000085D01000885
:1000600000000000DF000008DF000008DF000008DB
:10007000DF000008DF000008DF00000800000000CB
:10008000DF000008DF000008DF000008DF000008D4
:10009000DF000008DF000008DF000008DF000008C4
:1000A000DF000008DF000008DF000008DF000008B4
:1000B000DF000008DF0000080348854600F03CF838
:1000C00000480047010D0008100400200448804744
:1000D00004480047FEE7FEE7FEE7FEE7FEE7FEE72F
:1000E000AD0B0008B900000830B50B4601460020F2
:1000F0002022012409E00D46D5409D4205D31D462E
:100100009540491B2546954040191546521E002D25
:10011000F1DC30BDD2B201E00270401C491EFBD2BE
:1001200070470022F6E710B513460A460446194602
:10013000FFF7F0FF204610BD064C0125064E05E0F6
:10014000E36807CC2B430C3C98471034B442F7D3F8
:10015000FFF7B6FF500D0008700D000810B5202005
:1001600000F00EF810BD10B5044600F0B3FD0028F5
:1001700003D0202C01D100F070FC00F069FD10BD0F
:1001800070B5084D0446E868204203D0EC60204674
:1001900000F00AF82869204203D02C612046FFF7BE
:1001A000E2FF70BD0018024010B500F09DFD002870
:1001B00001D000F034FD10BDF0B5002388E001222D
:1001C0009A409446144022007ED04C68022C01D004
:1001D000122C0CD1DC08A40027183C6A5D07ED0E38
:1001E0000F26AE40B4430E69AE4026433E6205681A
:1001F0005E000324B4400F79A543BF07BF0FB7408B
:100200002F4307604D68012D05D0022D03D0112D1D
:1002100001D0122D0ED18568CF68A543B7402F437A
:10022000876047686546AF430D79ED06ED0F9D4049
:100230003D434560C568A5438C68B4402C43C46009
:100240004C68E40043D59D08244CAD002F193C6E4A
:100250009D07EE0E0F25B540AC4305252D07A8429E
:1002600001D100250FE01E4DA84201D101250AE071
:100270001C4DA84201D1022505E01B4DA84201D129
:10028000032500E00525B5402543144C3D66134D7C
:1002900080352E684F689643FF0300D516432E60C5
:1002A0006E684F689643BF0300D516436E6025689D
:1002B0004E689543F60200D51543256065684E6883
:1002C0009543B60202D500E001E0154365605B1C72
:1002D0000A681446DA4000D071E7F0BD0018024009
:1002E0000004005000080050000C00500069084055
:1002F00000D001207047002A01D0816170478162DF
:10030000704700000148806870470000000000202E
:1003100002488168426889188160704700000020A7
:1003200010B5084800240168821511430160204679
:1003300000F00AF8002801D0012401E000F028F8BC
:10034000204610BD0020024070B50F4E0024716899
:100350000546002915D07D20C000FFF7C5FE0146E7
:100360000A480068FFF7C0FE00F05EFB002808D1D5
:10037000042D06D200222946401E00F03FF83560C9
:1003800000E00124204670BD000000200C00002089
:1003900008B50B4801680122114301600068104054
:1003A000009007484038C26B01040A43C263C06B27
:1003B000084000900320400200F02CFB08BD000024
:1003C00040100240002809DBC106C90E0120884008
:1003D00003490860BFF34F8FBFF36F8F7047000072
:1003E00080E100E0002805DBC106C90E012088403D
:1003F000014908607047000000E100E010B500F01E
:10040000DDFB10BD10B50F4C216803225202914351
:1004100001432160C11FFF39FA390ED10A48062174
:10042000006848430949FFF75FFE401C02E00028CE
:1004300005D0401E61694905F9D4002010BD032094
:1004400010BD0000007000400C00002040420F0072
:10045000F8B50F46060043D04D4D28684007400FC1
:10046000B84213D22868C008C00038432860FFF79C
:1004700049FF044605E0FFF745FF011B454881425F
:1004800061D828684007400FB842F4D13068424C28
:1004900081070DD5400704D5A0680721090308434B
:1004A000A060A0680F2109028843B1680843A060DA
:1004B0003078C00732D0706801280AD002280BD0EB
:1004C00000280FD03449403103280ED0C96989076C
:1004D00004E02168890301E021688901002906DB25
:1004E0000120F8BD21684905F8E7096AEFE7A1682E
:1004F000C908C9000143A160FFF704FF009006E0AE
:10050000FFF700FF0099411A224881421BD8A068DA
:10051000382108407168C9008842F1D12868400735
:10052000400FB84217D91A480168C908C9003943B1
:100530000160FFF7E7FE054607E0FFF7E3FE411B1A
:100540001448814201D90320F8BD114800684007D2
:10055000400FB842F1D13078400706D5A068072196
:1005600009038843F1680843A06000F01DF8A16802
:100570003C2289091140094A515CC906C90EC8408C
:100580000749086007480068FFF7DEFEF8BD000075
:10059000002002408813000000100240100D0008E7
:1005A0000C0000200000002010B5204CA068204A5C
:1005B0008006400F16D0A0688006410F5010012918
:1005C0000FD0A1688906490F022912D0A0688006C1
:1005D000400F042823D0A0688006400F032821D0B4
:1005E000002010BD206801218004400F814010468A
:1005F00012E0E1688B07E1689B0F4906490F491C2F
:10060000032B00D01046FFF76FFDE1684904490E47
:100610004843E168490F491CFFF766FD10BD012002
:10062000C00310BD7D20000210BD0000001002407C
:100630000024F400F8B504007ED020783827C007E5
:10064000EB4D002846D0A868E96838408907890F33
:10065000102802D008280BD001E0032908D001207F
:100660006268000482420AD129680143296015E0CA
:10067000286880032ED560680028DDD02AE0052395
:1006800001211B0489049A422A6802D10A432A6084
:10069000EAE782432A602868884328606068002867
:1006A0000CD0FFF72FFE064604E0FFF72BFE801B61
:1006B000642873D828688003F7D50BE0FFF722FE83
:1006C000064604E0FFF71EFE801B6428F1D8286868
:1006D0008003F7D42078800769D5A868E968384096
:1006E0008A070721920FC902102802D0002813D0D0
:1006F00001E0022A10D0E068002846D0286888432C
:100700002169084328602868FF21013108432860D7
:10071000FFF7F8FD06462CE02A68520502D5E2688C
:10072000002A89D06A687F231B029A4363691B02EF
:100730001A436A60002800E08DE00ED128688843E3
:10074000216908432860286801218004400F814006
:10075000A848FFF7C9FCA8490860A8480068FFF747
:10076000F3FD002877D122E0FFF7CCFD801B0228A3
:100770009FD828684005F7D568687F21090288431B
:10078000616909020843686011E02968FF200130AF
:1007900081432960FFF7B6FD064605E098E0FFF7C4
:1007A000B1FD801B022884D828684005F7D4207842
:1007B000934E00072ED5A8688006400F03280AD064
:1007C000A0690028306A16D0012108433062FFF783
:1007D00099FD07460BE0306A80071BD5A069002809
:1007E0009FD017E0FFF78EFDC01B022870D8306A3B
:1007F0008007F7D50EE0400840003062FFF782FD29
:10080000074604E0FFF77EFDC01B022860D8306A6F
:100810008007F7D4207840076CD5A86800278006A9
:10082000400F042818D0E86BC00008D4E96B012001
:1008300000070143E963E96B01400127009171481A
:100840000168C90519D40168821511430160FFF7D9
:1008500059FD00900DE083E0F06980074AD5A0685B
:1008600000287DD046E0FFF74DFD0099401A022890
:100870002ED864480068C005F5D5A168012910D0BC
:1008800004200529F16911D049084900F161F16995
:100890008143F161A068002816D0FFF733FD009076
:1008A0000EE0F06901210843F061F3E70143F161D3
:1008B000F7E7FFF727FD0099411A534881426DD8A9
:1008C000F0698007F5D50EE0FFF71CFD009007E00A
:1008D00064E0FFF717FD0099411A4B4881425DD84B
:1008E000F0698007F5D4002F04D0E96B01200007E0
:1008F0008143E963E069002877D0A9688906490F38
:10090000022951D001263606022828680DD0B043AE
:100910002860E86880088000E860E8683B49084093
:10092000E860FFF7EFFC04463AE0B0432860FFF7C9
:10093000E9FC074604E0FFF7E5FCC01B02282DD8C0
:1009400028688001F7D4616A206AA26A0843E16AD4
:10095000120211430843216B0843E9682C4A00E066
:1009600041E011400843E860286830432860E868A7
:10097000012109070843E860FFF7C4FC044604E0CE
:10098000FFF7C0FC001B022808D828688001F7D5B3
:100990002BE0FFF7B7FC001B022801D90320F8BDAC
:1009A00028688001F5D420E00128F8D0E868226AA0
:1009B0008107890F914216D17021626A01409142EC
:1009C00011D17F21A26A09020140120291420AD18B
:1009D0001F214904E26A0140914204D1400F216B7A
:1009E0004007884201D00120F8BD0020F8BD00007A
:1009F000001002400024F4000C0000200000002041
:100A0000401002400070004088130000FFFFFEEF1E
:100A10008C80C11F03490A6803235B029A43024387
:100A20000A60704700000140094910B5401E884225
:100A300001D9012010BD074C60610321081F00F09F
:100A4000BDF80020A06107202061002010BD00003B
:100A5000FFFFFF0000E000E0FEE708B500F006F849
:100A60006946087000F000F9002008BD7CB5002040
:100A7000694608700871114C10251AE0022000F038
:100A80001FF869460878400005E020696946097842
:100A9000284008436946087020212046FFF726FCBD
:100AA0000028F2D1022000F0CBF869460879401CFA
:100AB000087108790828E1D308787CBD0008005047
:100AC00070B5052405462407012220212046FFF7A2
:100AD00012FC284600F0B4F8002220212046FFF73F
:100AE0000AFC70BD00B587B014216846FFF719FBFA
:100AF0001348416B012211434163416B1140059141
:100B0000436B04210B434363436B0B400593436BDF
:100B100020210B434363406B009108400590002067
:100B20000290032003900520019269460007FFF719
:100B300043FB00F0B9F800F097F807B000BD0000E3
:100B40000010024070477047704710B5FFF7E0FB98
:100B500010BD30B591B034216846FFF7E2FA0024A9
:100B600001200D940E940F9440021094FFF74AFC5C
:100B70000225E801039000954020059008200A9086
:100B800080030B900795000304940C90089509943A
:100B90006846FFF74FFD07200D900F9402210E9538
:100BA00010940DA8FFF754FC11B030BD012002498C
:100BB000C00688607047000000ED00E08307FF2258
:100BC000DB0E9A408907090E9940002808DB83084C
:100BD00009489B001B181868904308431860704729
:100BE0000007000F0838830804489B001B18D869C9
:100BF00090430843D861704700E400E000ED00E056
:100C000002E008C8121F08C1002AFAD170477047D5
:100C1000002001E001C1121F002AFBD1704710B56E
:100C200005242407012220212046FFF764FB02202F
:100C300000F006F8002220212046FFF75CFB10BDE3
:100C400008B50090411E009101D30846FAE708BD9F
:100C500010B504482021C16001610720FFF7B2FBF5
:100C600010BD00000018024000B585B01421684690
:100C7000FFF757FA202000900948019000200290C9
:100C80000320039069460748FFF796FA00221146B1
:100C90000720FFF7B3FB0720FFF7A4FB05B000BD5B
:100CA000000021100008005000B585B014216846EE
:100CB000FFF737FA102000900020019002900320E7
:100CC000039069460248FFF777FA05B000BD0000BF
:100CD0000008005003480069C00601D40120704795
:100CE000002070470008005010B520210348FFF78E
:100CF000FDFA002800D0012010BD000000080050BF
:100D0000FFF70EFBFFF725FFFFF7ECFEFEE7000005
:100D100000000000000000000000000000000000D3
:100D200000000000000000000000000000000000C3
:100D300001000000020000000300000004000000A9
:100D40000600000007000000080000000900000085
:100D5000700D00080000002010000000000C0008CA
:100D6000800D00081000002000040000100C000896
:100D70000400000001000000000000000024F40056
:04000005080000B936
:00000001FF
