:020000040800F2
:1000000010040020CD000008050B0008510A00086C
:1000100000000000000000000000000000000000E0
:10002000000000000000000000000000090B0008B4
:100030000000000000000000070B00080B0B000888
:10004000DF00000800000000DF000008DF000008FB
:10005000DF000008DF000008DF0000085D01000885
:1000600000000000DF000008DF000008DF000008DB
:10007000DF000008DF000008DF00000800000000CB
:10008000DF000008DF000008DF000008DF000008D4
:10009000DF000008DF000008DF000008DF000008C4
:1000A000DF000008DF000008DF000008DF000008B4
:1000B000DF000008DF0000080348854600F03CF838
:1000C00000480047DD0C0008100400200448804769
:1000D00004480047FEE7FEE7FEE7FEE7FEE7FEE72F
:1000E0006D0B0008B900000830B50B460146002032
:1000F0002022012409E00D46D5409D4205D31D462E
:100100009540491B2546954040191546521E002D25
:10011000F1DC30BDD2B201E00270401C491EFBD2BE
:1001200070470022F6E710B513460A460446194602
:10013000FFF7F0FF204610BD064C0125064E05E0F6
:10014000E36807CC2B430C3C98471034B442F7D3F8
:10015000FFF7B6FF300D0008500D000810B5012064
:10016000800200F015F810BD10B5044600F09CFDAB
:1001700000280BD001208002844207D100F02FFD1F
:1001800000F046FD00F06CFD00F063FC10BD0000C7
:1001900070B5084D0446E868204203D0EC60204664
:1001A00000F00AF82869204203D02C612046FFF7AE
:1001B000DBFF70BD0018024010B500F083FD002881
:1001C00005D000F00CFD00F049FD00F023FD10BD4E
:1001D000F0B5002388E001229A40944614402200A2
:1001E0007ED04C68022C01D0122C0CD1DC08A4006B
:1001F00027183C6A5D07ED0E0F26AE40B4430E692A
:10020000AE4026433E6205685E000324B4400F7989
:10021000A543BF07BF0FB7402F4307604D68012DAF
:1002200005D0022D03D0112D01D0122D0ED18568DD
:10023000CF68A543B7402F43876047686546AF4303
:100240000D79ED06ED0F9D403D434560C568A54322
:100250008C68B4402C43C4604C68E40043D59D08CE
:10026000244CAD002F193C6E9D07EE0E0F25B540B6
:10027000AC4305252D07A84201D100250FE01E4DF6
:10028000A84201D101250AE01C4DA84201D1022556
:1002900005E01B4DA84201D1032500E00525B5402E
:1002A0002543144C3D66134D80352E684F689643A8
:1002B000FF0300D516432E606E684F689643BF0358
:1002C00000D516436E6025684E689543F60200D54A
:1002D0001543256065684E689543B60202D500E077
:1002E00001E0154365605B1C0A681446DA4000D0E3
:1002F00071E7F0BD001802400004005000080050F3
:10030000000C00500069084000D001207047002A0E
:1003100001D08161704781627047000001488068A8
:100320007047000000000020024881684268891878
:10033000816070470000002010B508480024016863
:10034000821511430160204600F00AF8002801D010
:10035000012401E000F028F8204610BD00200240F2
:1003600070B50F4E002471680546002915D07D2018
:10037000C000FFF7B9FE01460A480068FFF7B4FE67
:1003800000F04EFB002808D1042D06D20022294699
:10039000401E00F02FF8356000E00124204670BDBB
:1003A000000000200C00002008B50B480168012265
:1003B0001143016000681040009007484038C26B4C
:1003C00001040A43C263C06B08400090032040024E
:1003D00000F01CFB08BD000040100240002805DBB7
:1003E000C106C90E0120884001490860704700001D
:1003F00000E100E010B500F0C1FB10BD10B50F4CDE
:10040000216803225202914301432160C11FFF3939
:10041000FA390ED10A480621006848430949FFF716
:1004200063FE401C02E0002805D0401E61694905BA
:10043000F9D4002010BD032010BD00000070004062
:100440000C00002040420F00F8B50F46060043D0D4
:100450004D4D28684007400FB84213D22868C008A5
:10046000C00038432860FFF759FF044605E0FFF756
:1004700055FF011B4548814261D828684007400F5D
:10048000B842F4D13068424C81070DD5400704D5FD
:10049000A068072109030843A060A0680F21090292
:1004A0008843B1680843A0603078C00732D07068D4
:1004B00001280AD002280BD000280FD0344940313F
:1004C00003280ED0C969890704E02168890301E087
:1004D00021688901002906DB0120F8BD2168490552
:1004E000F8E7096AEFE7A168C908C9000143A160FC
:1004F000FFF714FF009006E0FFF710FF0099411A84
:10050000224881421BD8A068382108407168C90080
:100510008842F1D128684007400FB84217D91A48DD
:100520000168C908C90039430160FFF7F7FE0546B5
:1005300007E0FFF7F3FE411B1448814201D9032075
:10054000F8BD114800684007400FB842F1D130783B
:10055000400706D5A068072109038843F1680843CE
:10056000A06000F01DF8A1683C2289091140094AE9
:10057000515CC906C90EC8400749086007480068B1
:10058000FFF7EEFEF8BD00000020024088130000D7
:1005900000100240F00C00080C00002000000020B9
:1005A00010B5204CA068204A8006400F16D0A068E5
:1005B0008006410F501001290FD0A1688906490F0C
:1005C000022912D0A0688006400F042823D0A0681A
:1005D0008006400F032821D0002010BD2068012193
:1005E0008004400F8140104612E0E1688B07E1680B
:1005F0009B0F4906490F491C032B00D01046FFF7FB
:1006000073FDE1684904490E4843E168490F491CFC
:10061000FFF76AFD10BD0120C00310BD7D20000260
:1006200010BD0000001002400024F400F8B50400E2
:100630007ED020783827C007EB4D002846D0A86828
:10064000E96838408907890F102802D008280BD0A4
:1006500001E0032908D001206268000482420AD127
:1006600029680143296015E0286880032ED5606859
:100670000028DDD02AE0052301211B0489049A42C9
:100680002A6802D10A432A60EAE782432A6028687E
:1006900088432860606800280CD0FFF73FFE0646BC
:1006A00004E0FFF73BFE801B642873D828688003B2
:1006B000F7D50BE0FFF732FE064604E0FFF72EFE0B
:1006C000801B6428F1D828688003F7D4207880073D
:1006D00069D5A868E96838408A070721920FC902DE
:1006E000102802D0002813D001E0022A10D0E068C0
:1006F000002846D028688843216908432860286874
:10070000FF21013108432860FFF708FE06462CE070
:100710002A68520502D5E268002A89D06A687F23D8
:100720001B029A4363691B021A436A60002800E0B7
:100730008DE00ED128688843216908432860286825
:1007400001218004400F8140A848FFF7CDFCA84953
:100750000860A8480068FFF703FE002877D122E070
:10076000FFF7DCFD801B02289FD828684005F7D5DD
:1007700068687F210902884361690902084368604B
:1007800011E02968FF20013081432960FFF7C6FD91
:10079000064605E098E0FFF7C1FD801B022884D8DB
:1007A00028684005F7D42078934E00072ED5A86816
:1007B0008006400F03280AD0A0690028306A16D0AE
:1007C000012108433062FFF7A9FD07460BE0306ABC
:1007D00080071BD5A06900289FD017E0FFF79EFD7A
:1007E000C01B022870D8306A8007F7D50EE0400899
:1007F00040003062FFF792FD074604E0FFF78EFDF0
:10080000C01B022860D8306A8007F7D420784007E0
:100810006CD5A86800278006400F042818D0E86B24
:10082000C00008D4E96B012000070143E963E96BCC
:1008300001400127009171480168C90519D4016878
:10084000821511430160FFF769FD00900DE083E020
:10085000F06980074AD5A06800287DD046E0FFF700
:100860005DFD0099401A02282ED864480068C00532
:10087000F5D5A168012910D004200529F16911D00E
:1008800049084900F161F1698143F161A0680028DC
:1008900016D0FFF743FD00900EE0F06901210843F8
:1008A000F061F3E70143F161F7E7FFF737FD0099E6
:1008B000411A534881426DD8F0698007F5D50EE0A2
:1008C000FFF72CFD009007E064E0FFF727FD00999B
:1008D000411A4B4881425DD8F0698007F5D4002F5A
:1008E00004D0E96B012000078143E963E069002837
:1008F00077D0A9688906490F022951D0012636060A
:10090000022828680DD0B0432860E868800880007D
:10091000E860E8683B490840E860FFF7FFFC0446F0
:100920003AE0B0432860FFF7F9FC074604E0FFF720
:10093000F5FCC01B02282DD828688001F7D4616A15
:10094000206AA26A0843E16A120211430843216B3C
:100950000843E9682C4A00E041E011400843E860A0
:10096000286830432860E868012109070843E860E7
:10097000FFF7D4FC044604E0FFF7D0FC001B02287C
:1009800008D828688001F7D52BE0FFF7C7FC001BCB
:10099000022801D90320F8BD28688001F5D420E0A1
:1009A0000128F8D0E868226A8107890F914216D1A0
:1009B0007021626A0140914211D17F21A26A09022D
:1009C0000140120291420AD11F214904E26A01400A
:1009D000914204D1400F216B4007884201D0012091
:1009E000F8BD0020F8BD0000001002400024F40013
:1009F0000C00002000000020401002400070004069
:100A000088130000FFFFFEEF8C80C11F03490A68B6
:100A100003235B029A4302430A60704700000140CF
:100A2000094910B5401E884201D9012010BD074C6C
:100A300060610321081F00F0A1F80020A0610720D9
:100A40002061002010BD0000FFFFFF0000E000E07B
:100A5000FEE710B500F002F8002010BD70B50024CC
:100A60000C4E25466006040E04E010213046FFF7C8
:100A700049FC044320213046FFF744FC0028F4D110
:100A8000022000F0BDF86D1CEDB2082DEAD320461F
:100A900070BD00000008005070B50524054624070D
:100AA000012220212046FFF732FC284600F0A8F85A
:100AB000002220212046FFF72AFC70BD30B587B008
:100AC00014216846FFF72DFB0D48416B012421439B
:100AD0004163406B052520402D0705900022202111
:100AE0002846FFF714FC20200090002002900220EE
:100AF0000390019469462846FFF76AFB07B030BDB2
:100B00000010024070477047704710B5FFF70CFCAB
:100B100010BD30B591B034216846FFF702FB0024C8
:100B200001200D940E940F9440021094FFF766FC80
:100B30000225E801039000954020059008200A90C6
:100B400080030B900795000304940C90089509947A
:100B50006846FFF76BFD07200D900F9402210E955C
:100B600010940DA8FFF770FC11B030BD01200249B0
:100B7000C00688607047000000ED00E08307FF2298
:100B8000DB0E9A408907090E9940002808DB83088C
:100B900009489B001B181868904308431860704769
:100BA0000007000F0838830804489B001B18D86909
:100BB00090430843D861704700E400E000ED00E096
:100BC00002E008C8121F08C1002AFAD17047704716
:100BD000002001E001C1121F002AFBD1704710B5AF
:100BE00005242407012220212046FFF790FB022044
:100BF00000F006F8002220212046FFF788FB10BDF8
:100C000008B50090411E009101D30846FAE708BDDF
:100C10007047000030B585B014216846FFF781FAAF
:100C200001240525A4022D07002221462846FFF7AE
:100C30006EFB094801900120029000946946284605
:100C4000FFF7C6FA002211460720FFF7D3FB072063
:100C5000FFF7C4FB05B030BD000021107047000055
:100C600030B585B014216846FFF75BFA01240525ED
:100C7000A4022D07002221462846FFF748FB094819
:100C8000019002200290009469462846FFF7A0FADE
:100C9000002211460720FFF7ADFB0720FFF79EFB60
:100CA00005B030BD0000111010B50120FFF7F4FEB3
:100CB00003480069800601D5012010BD002010BD49
:100CC0000008005010B520210348FFF71BFB002847
:100CD00000D0012010BD000000080050FFF72CFBE1
:100CE000FFF717FFFFF7EAFEFFF794FFFEE70000AC
:100CF00000000000000000000000000000000000F4
:100D000000000000000000000000000000000000E3
:100D100001000000020000000300000004000000C9
:100D200006000000070000000800000009000000A5
:100D3000500D00080000002010000000C00B00084B
:100D4000600D00081000002000040000D00B000817
:100D50000400000001000000000000000024F40076
:04000005080000B936
:00000001FF
