:020000040800F2
:1000000010040020CD000008E50E0008610D000876
:1000100000000000000000000000000000000000E0
:10002000000000000000000000000000E90E0008D1
:100030000000000000000000E70E0008EB0E0008C2
:10004000DF00000800000000DF000008DF000008FB
:10005000DF000008DF000008DF000008DF00000804
:1000600000000000DF000008DF000008DF000008DB
:10007000DF000008DF000008DF00000800000000CB
:10008000DF000008DF000008DF000008DF000008D4
:10009000DF000008DF000008DF000008DF000008C4
:1000A000DF000008DF000008DF000008DF000008B4
:1000B000DF000008DF0000080348854600F03CF838
:1000C00000480047A11000081004002004488047A1
:1000D00004480047FEE7FEE7FEE7FEE7FEE7FEE72F
:1000E000550F0008B900000830B50B460146002046
:1000F0002022012409E00D46D5409D4205D31D462E
:100100009540491B2546954040191546521E002D25
:10011000F1DC30BDD2B201E00270401C491EFBD2BE
:1001200070470022F6E710B513460A460446194602
:10013000FFF7F0FF204610BD064C0125064E05E0F6
:10014000E36807CC2B430C3C98471034B442F7D3F8
:10015000FFF7B6FF3011000850110008704700008B
:1001600070B503460022D5E0012696400C68344065
:10017000002C71D04D68022D02D04D68122D15D182
:10018000D508AE001D462035A8595507EE0E0F259F
:10019000B5400646AE4330465607F60E0D69B540EB
:1001A0002843D508AD001E46203670511868560009
:1001B0000325B5400646AE4330460D79AD07AD0F79
:1001C0005600B540284318604D68012D08D04D6891
:1001D000022D05D04D68112D02D04D68122D18D179
:1001E000986856000325B5400646AE433046560093
:1001F000CD68B5402843986058680125954006466B
:10020000AE43304610264D6835402D0995402843B1
:100210005860D86856000325B5400646AE433046C0
:1002200056008D68B5402843D860012636074D68D2
:100230003540B5426DD13A4D9608B600A85995079C
:10024000EE0E0F25B5400646AE43304605252D0778
:10025000AB4202D1002510E05BE0324DAB4201D150
:1002600001250AE0304DAB4201D1022505E02F4DBA
:10027000AB4201D1032500E005259607F60EB540F7
:100280002843274D9608B600A851254D20352868EB
:100290000546A5432846012636044D683540B5423B
:1002A00002D10546254328461D4D20352860686843
:1002B0000546A5432846012676044D683540B542DB
:1002C00002D1054625432846154D20356860144D5A
:1002D000603D28680546A5432846012636054D6839
:1002E0003540B54202D10546254328460C4D603DB8
:1002F000286068680546A5432846012676054D68AE
:100300003540B54202D1054625432846044D603D9F
:100310006860521C0D68D540002D00D024E770BDE8
:10032000601802400004005000080050000C00500B
:10033000002A01D0816100E08162704701480068B5
:100340007047000000000020034800680349096866
:100350004018014908607047000000200800002094
:1003600010B5002408480068FF2101310843064900
:100370000860002000F00AF8002801D0012401E004
:1003800000F034F8204610BD00200240F8B50446C5
:1003900000251348006800281ED0114801687D2000
:1003A000C000FFF7A1FE074639460E480068FFF778
:1003B0009BFE064600F0B8FC00280BD1042C07D2A7
:1003C00000222146401E00F037F80748046004E090
:1003D000012502E0012500E001252846F8BD0000C6
:1003E000080000200C0000200400002008B500BF19
:1003F00010480068012108430E490860084600685B
:10040000C007C00F009000BF00BF00BF09484038C0
:10041000C06B8905084307494039C8630846C06B6B
:1004200009040840009000BF00BF0320400200F014
:100430006FFC08BD4010024070B504460D461646DC
:100440002946204600F08EFD70BD000070B50446C0
:100450001148006803214902884320430E4908607F
:100460004815844216D10D490968062251430846B1
:100470000B49FFF739FE451C05E0002D01D06D1E2C
:1004800001E0032070BD0448406901218902084051
:100490008842F2D00020F5E7007000400C000020F8
:1004A00040420F0070B504460D46002C01D10120DA
:1004B00070BD6B4800684007400FA84218D26848DA
:1004C0000068C008C000284365490860FFF736FF90
:1004D000064607E0FFF732FF801B6249884201D9D8
:1004E0000320E5E75E4800684007400FA842F1D1CD
:1004F000022120680840022815D104212068084004
:10050000042807D158488068072109038843401808
:1005100055498860544880680F2109028843A168C2
:100520000843514988602078C007C00F002854D084
:100530006068012808D14C4800680121490408403E
:1005400000282ED10120B3E76068022808D1464870
:100550000068012149060840002822D10120A7E7B0
:100560006068002808D140480068012189020840DD
:10057000002816D101209BE76068032808D13A487B
:100580004030006A0221084000280AD101208FE78C
:1005900035484030C06902210840002801D10120BF
:1005A00086E731488068C008C000616808432E496A
:1005B0008860FFF7C3FE064607E0FFF7BFFE801B1B
:1005C0002849884201D9032072E7274880683821EA
:1005D00008406168C9008842EFD12148006840079F
:1005E000400FA84218D91E480068C008C000284320
:1005F0001B490860FFF7A2FE064607E0FFF79EFED4
:10060000801B1849884201D9032051E7144800682B
:100610004007400FA842F1D1042120680840042877
:1006200008D111488068072109038843E16808431D
:100630000D49886000F020F80B4989680F221202EA
:100640001140090A8900094A515CC906C90EC8400F
:100650000749086007480068FFF798FE28E7000090
:10066000002002408813000000100240D010000853
:100670000C00002004000020FEB5354880683821B9
:10068000084000280DD13248006809020840C10A1C
:100690000120884000902F480099FFF725FD04466F
:1006A00054E02B48806838210840082801D12A4CA2
:1006B0004CE02748806838210840102834D124486D
:1006C000C0688607B60F2248C0687021084000093C
:1006D000401C0190022E0FD0032E0CD11E48019910
:1006E000FFF702FD1A49C9687F2212021140090A68
:1006F000484305460DE000BF16480199FFF7F4FC9A
:100700001349C9687F2212021140090A484305466D
:1007100000BF00BF0E48C068400F471C394628463E
:10072000FFF7E2FC044611E00948806838210840E0
:10073000202801D1840209E005488068382108405A
:10074000182802D17D24240200E000242046FEBDAA
:10075000001002400024F40000127A00FEB50446A6
:10076000002C01D10120FEBD2078C007C00F002859
:100770006FD0F748876838210F40C0688607B60FEA
:10078000102F01D1032E01D0082F0BD1F0480068A3
:1007900001214904084000285BD06068002858D136
:1007A0000120E0E700BF012109046068884205D10B
:1007B000E74800680843E649086021E0052109048C
:1007C000606888420ED1E24800680121890408432C
:1007D000DF49086008460068012109040843DC4934
:1007E00008600DE0DA480068012109048843D8490F
:1007F000086008460068012189048843D4490860DC
:1008000000BF6068002812D0FFF798FD054606E09B
:10081000FFF794FD401B642801D90320A3E7CC48CF
:1008200000680121490408400028F1D011E0FFF7D9
:1008300085FD054606E0FFF781FD401B642801D9D0
:10084000032090E7C24800680121490408400028BD
:10085000F1D1022120680840022873D1BC48806889
:10086000382108400746BA48C0688607B60F102FDF
:1008700001D1022E01D0002F36D1B54800680121E8
:1008800089020840002804D0E068002801D1012036
:1008900069E7AF4840687F2109028843616909021E
:1008A0000843AB494860002F16D10846006807216D
:1008B000C902884321690843A549086008460068C1
:1008C0000722D2021040C20A012090400146A148EE
:1008D000FFF70AFCA0490860A0480068FFF756FD32
:1008E000002849D001203EE7E06800282BD0984836
:1008F00000680721C90288432169084394490860B8
:10090000084600688915084391490860FFF716FDFD
:10091000054606E0FFF712FD401B022801D903201F
:1009200021E78B4800680121890208400028F1D0A6
:10093000874840687F2109028843616909020843AA
:100940008349486018E082480068FF2101318843EC
:100950007F490860FFF7F2FC054606E0FFF7EEFC72
:10096000401B022801D90320FDE6794800680121D7
:10097000890208400028F1D1082120680840082891
:1009800049D1734880683821084018280BD1704835
:100990004030006A0221084000283CD0A0690028AD
:1009A00039D10120DFE6A06900281AD0684840301C
:1009B000006A01210843664940310862FFF7BEFC26
:1009C000054606E0FFF7BAFC401B022801D90320C8
:1009D000C9E65F484030006A022108400028F1D093
:1009E00019E05B484030006A4008400058494031F7
:1009F0000862FFF7A3FC054606E0FFF79FFC401BDB
:100A0000022801D90320AEE651484030006A022195
:100A100008400028F1D104212068084004287CD136
:100A2000002001904A4880683821084020280BD1D6
:100A300047484030C0690221084000286ED0A068B5
:100A400000286BD101208EE64148C06B010F0120C8
:100A50008843002810D000BF3D48C06B0121090722
:100A600008433B49C8630846C06B0904084000902E
:100A700000BF00BF0120019039480068FF2101310B
:100A80000840002816D136480068084334490860F9
:100A9000FFF754FC054606E0FFF750FC401B022818
:100AA00001D903205FE62E480068FF21013108408C
:100AB0000028F1D000BFA068012808D124484030A8
:100AC000C0690121084322494031C86120E0A06883
:100AD00005280FD11E484030C069042108431C4935
:100AE0004031C8610846C0690121084318494031B6
:100AF000C8610DE016484030C069410849001448FB
:100B00004030C161C0690421884311494031C86146
:100B100000BFA068002816D001E040E03EE0FFF7EB
:100B20000DFC054607E0FFF709FC401B0D49884214
:100B300001D9032017E606484030C0690221084069
:100B40000028F0D01EE0FFF7F9FB054614E0000096
:100B5000001002400024F4000C00002004000020DB
:100B60000070004088130000FFF7E8FB401B644959
:100B7000884201D90320F6E56248C0690221084095
:100B80000028F1D10198012808D15E484038C06B97
:100B90000121090788435B494039C86300BFE06908
:100BA00000285AD05748403880683821084010281B
:100BB0007ED0E069022851D15248403800680121B6
:100BC000090688434F4940390860FFF7B7FB0546DF
:100BD00006E0FFF7B3FB401B022801D90320C2E562
:100BE0004848403800680121490608400028F0D1F3
:100BF000616A206A0843A16A09020843E16A08435E
:100C0000216B08433F494039C9683F4A11400843B6
:100C10003C494039C860084600680121090608437C
:100C20003849403908600846C06809040843354916
:100C30004039C860FFF782FB054606E0FFF77EFB00
:100C4000401B022801D903208DE52E48403800685A
:100C50000121490608400028F0D04EE029484038DC
:100C60000068012109068843264940390860084682
:100C7000C06880088000C8600846C06823490840F2
:100C800020494039C860FFF759FB054607E0FFF7E8
:100C900055FB401B022802D9032064E508E01948EF
:100CA000403800680121490608400028EFD124E0BF
:100CB000E069012800D156E512484038C668B107FE
:100CC000890F206A814216D170203040616A8842C3
:100CD00011D17F2000023040A16A090288420AD166
:100CE0001F2040043040E16A884204D1710F490757
:100CF000206B814201D0012035E5002033E5000062
:100D000088130000401002408C80C11FFFFFFEEFDF
:100D1000044909680322520291430143014A1160C8
:100D2000704700000000014070B504462546681E6B
:100D30000949884201D901200CE0681E0749486131
:100D40000321081F00F00EF90020044988610720E4
:100D50000861002070BD0000FFFFFF0000E000E020
:100D600000BFFEE71CB504460021019100910191EE
:100D70002AE080202040009069460878002805D0AD
:100D8000012210211348FFF7D3FA04E000221021BA
:100D90001048FFF7CDFA012220210E48FFF7C8FACC
:100DA000022000F02AF9002220210A48FFF7C0FAA9
:100DB000002210210748FFF7BBFA6006040E6846C0
:100DC0000079401CC1B20191684600790828D0DB47
:100DD0001CBD000000080050F7B50C46154627461C
:100DE0002E4600F013F90098FFF7BCFF00F040F921
:100DF00000280AD105E0B85DFFF7B4FF022000F03B
:100E0000FCF83046761E0028F5D100F01DF90020D0
:100E1000FEBD000000B587B0142102A8FFF781F9DC
:100E200000BF2E48406B012108432C494863084607
:100E3000406BC007C00F019000BF00BF00BF084655
:100E4000406B04210843254948630846406B042150
:100E50000840019000BF00BF0022202105200007AC
:100E6000FFF766FA202002900120039000200490F2
:100E70000220059002A905200007FFF771F9002262
:100E800010211748FFF754FA102002900120039018
:100E9000002004900320059002A91148FFF760F993
:100EA000012210210E48FFF743FA002220210C48AE
:100EB000FFF73EFA202002900120039000200490CA
:100EC0000320059002A90648FFF74AF901222021D4
:100ED0000348FFF72DFA07B000BD000000100240E4
:100EE0000008005070477047704710B5FFF72CFAA4
:100EF00010BD00B591B0342104A8FFF712F900200D
:100F0000009001900290039001204002FFF79EFAAA
:100F100002200490C0010790002008904020099012
:100F200000200B9004A8FFF719FC002801D0FFF760
:100F300015F90720009000200190029003900021F5
:100F40006846FFF7AFFA002801D0FFF707F911B0A4
:100F500000BD00000120C006014988607047000004
:100F600000ED00E010B5002819DB1A4A03231B022C
:100F7000D21883089B00D2588307DC0EFF23A340BE
:100F80009A438B071B0E8407E40EA3401A43114BB0
:100F9000032424021B198408A4001A5118E00E4AE5
:100FA00003071B0F083B9B089B00D2588307DC0EEE
:100FB000FF23A3409A438B071B0E8407E40EA34034
:100FC0001A43054B0407240F083CA408A4001A5137
:100FD00010BD000000E100E01CED00E002E008C8E8
:100FE000121F08C1002AFAD170477047002001E0A3
:100FF00001C1121F002AFBD1704708B5009000BF45
:1010000000994A1E00920029FAD108BD10B50122AC
:1010100020210C48FFF78CF9012210210948FFF725
:1010200087F90220FFF7E9FF002210210548FFF7AA
:101030007FF9002220210348FFF77AF90220FFF709
:10104000DCFF10BD0008005010B500221021074839
:10105000FFF76EF9012220210448FFF769F9012208
:1010600010210248FFF764F910BD0000000800508D
:1010700010B5012220210948FFF75AF90220FFF795
:10108000BCFF0648006910210840044600222021C8
:101090000248FFF74DF9204610BD0000000800503F
:1010A0001CB509A103C901910090FFF759F9FFF799
:1010B00020FFFFF7AFFE02226946A020FFF78CFE5B
:1010C00000BF00BF00201CBD00010203040500009A
:1010D0000000000000000000000000000000000010
:1010E0000000000000000000000000000000000000
:1010F00001000000020000000300000004000000E6
:1011000006000000070000000800000009000000C1
:1011100000000000000000000000000000000000CF
:1011200001000000020000000300000004000000B5
:10113000501100080000002010000000DC0F000823
:10114000601100081000002000040000EC0F0008EF
:101150000000000004000000010000000024F40072
:04000005080000B936
:00000001FF
