:020000040800F2
:1000000020040020CD000008C90E0008050E0008DD
:1000100000000000000000000000000000000000E0
:10002000000000000000000000000000CD0E0008ED
:100030000000000000000000CB0E0008CF0E0008FA
:10004000DF00000800000000DF000008DF000008FB
:10005000DF000008DF000008DF0000085D01000885
:1000600000000000DF000008DF000008DF000008DB
:10007000DF000008DF000008DF00000800000000CB
:10008000DF000008DF000008DF000008DF000008D4
:10009000DF000008DF000008DF000008DF000008C4
:1000A000DF000008DF000008DF000008DF000008B4
:1000B000DF000008DF0000080348854600F03CF838
:1000C000004800470511000820040020044880472C
:1000D00004480047FEE7FEE7FEE7FEE7FEE7FEE72F
:1000E000390F0008B900000830B50B460146002062
:1000F0002022012409E00D46D5409D4205D31D462E
:100100009540491B2546954040191546521E002D25
:10011000F1DC30BDD2B201E00270401C491EFBD2BE
:1001200070470022F6E710B513460A460446194602
:10013000FFF7F0FF204610BD064C0125064E05E0F6
:10014000E36807CC2B430C3C98471034B442F7D3F8
:10015000FFF7B6FF781100089811000810B50120CC
:10016000800200F00FF810BD704710B5044600F093
:1001700085FF002805D001208002844201D100F0D3
:100180002FFF10BD10B504460A48C0682040002863
:1001900004D00848C460204600F00EF80548006905
:1001A0002040002804D0034804612046FFF7DDFF0B
:1001B00010BD00000018024010B5044600F094FF86
:1001C000002805D000F00CFF00F050FF00F028FFE1
:1001D00010BD000070B503460022D5E00126964010
:1001E0000C683440002C71D04D68022D02D04D684F
:1001F000122D15D1D508AE001D462035A85955073A
:10020000EE0E0F25B5400646AE4330465607F60EB5
:100210000D69B5402843D508AD001E462036705103
:10022000186856000325B5400646AE4330460D79A2
:10023000AD07AD0F5600B540284318604D68012D3D
:1002400008D04D68022D05D04D68112D02D04D68A3
:10025000122D18D1986856000325B5400646AE43C6
:1002600030465600CD68B54028439860586801254F
:1002700095400646AE43304610264D6835402D0960
:10028000954028435860D86856000325B540064677
:10029000AE43304656008D68B5402843D8600126ED
:1002A00036074D683540B5426DD13A4D9608B600D7
:1002B000A8599507EE0E0F25B5400646AE433046C9
:1002C00005252D07AB4202D1002510E05BE0324D41
:1002D000AB4201D101250AE0304DAB4201D10225EC
:1002E00005E02F4DAB4201D1032500E0052596071F
:1002F000F60EB5402843274D9608B600A851254D67
:10030000203528680546A5432846012636044D6851
:100310003540B54202D10546254328461D4D2035BE
:10032000286068680546A5432846012676044D687E
:100330003540B54202D1054625432846154D2035A6
:100340006860144D603D28680546A543284601268F
:1003500036054D683540B54202D10546254328464D
:100360000C4D603D286068680546A5432846012677
:1003700076054D683540B54202D1054625432846ED
:10038000044D603D6860521C0D68D540002D00D0C2
:1003900024E770BD601802400004005000080050BF
:1003A000000C0050024613690B40002B01D00120C5
:1003B00000E000207047002A01D0816100E08162E6
:1003C0007047000001480068704700000C000020E2
:1003D00003480068034909684018014908607047EC
:1003E0000C0000201400002010B50024084800680C
:1003F000FF210131084306490860002000F00AF897
:10040000002801D0012401E000F034F8204610BD9E
:1004100000200240F8B50446002513480068002873
:100420001ED0114801687D20C000FFF75DFE074621
:1004300039460E480068FFF757FE064600F0C6FC36
:1004400000280BD1042C07D200222146401E00F0C8
:1004500045F80748046004E0012502E0012500E0BA
:1004600001252846F8BD00001400002018000020D7
:100470001000002008B500BF1048006801210843A3
:100480000E49086008460068C007C00F009000BF12
:1004900000BF00BF09484038C06B890508430749C1
:1004A0004039C8630846C06B09040840009000BF8B
:1004B00000BF0320400200F07DFC08BD4010024058
:1004C0000146002905DBCB06DB0E01229A40024BD8
:1004D0001A6000BF7047000000E100E070B50446FC
:1004E0000D4616462946204600F02EFD70BD000040
:1004F00070B504461148006803214902884320432F
:100500000E4908604815844216D10D490968062233
:10051000514308460B49FFF7E7FD451C05E0002D58
:1005200001D06D1E01E0032070BD04484069012127
:10053000890208408842F2D00020F5E700700040B0
:100540001800002040420F0070B504460D46002CF4
:1005500001D1012070BD6B4800684007400FA842E0
:1005600018D268480068C008C00028436549086080
:10057000FFF728FF064607E0FFF724FF801B6249CC
:10058000884201D90320E5E75E4800684007400F34
:10059000A842F1D1022120680840022815D1042187
:1005A00020680840042807D15848806807210903BB
:1005B0008843401855498860544880680F210902D3
:1005C0008843A1680843514988602078C007C00F5C
:1005D000002854D06068012808D14C4800680121E7
:1005E0004904084000282ED10120B3E760680228A2
:1005F00008D146480068012149060840002822D158
:100600000120A7E76068002808D140480068012160
:1006100089020840002816D101209BE76068032862
:1006200008D13A484030006A0221084000280AD127
:1006300001208FE735484030C0690221084000287A
:1006400001D1012086E731488068C008C000616898
:1006500008432E498860FFF7B5FE064607E0FFF71E
:10066000B1FE801B2849884201D9032072E7274840
:100670008068382108406168C9008842EFD121486C
:1006800000684007400FA84218D91E480068C008FB
:10069000C00028431B490860FFF794FE064607E0A8
:1006A000FFF790FE801B1849884201D9032051E7CB
:1006B000144800684007400FA842F1D10421206887
:1006C0000840042808D1114880680721090388439D
:1006D000E16808430D49886000F020F80B498968FB
:1006E0000F2212021140090A8900094A515CC90609
:1006F000C90EC8400749086007480068FFF78AFE2E
:1007000028E700000020024088130000001002408B
:10071000181100081800002010000020FEB5354810
:1007200080683821084000280DD13248006809024D
:100730000840C10A0120884000902F480099FFF727
:10074000D3FC044654E02B48806838210840082830
:1007500001D12A4C4CE027488068382108401028F5
:1007600034D12448C0688607B60F2248C06870217B
:1007700008400009401C0190022E0FD0032E0CD11E
:100780001E480199FFF7B0FC1A49C9687F2212027E
:100790001140090A484305460DE000BF164801997B
:1007A000FFF7A2FC1349C9687F2212021140090A0F
:1007B0004843054600BF00BF0E48C068400F471CB5
:1007C00039462846FFF790FC044611E00948806846
:1007D00038210840202801D1840209E005488068BA
:1007E00038210840182802D17D24240200E000248A
:1007F0002046FEBD001002400024F40000127A00E2
:10080000FEB50446002C01D10120FEBD2078C007B2
:10081000C00F00286FD0F748876838210F40C068A4
:100820008607B60F102F01D1032E01D0082F0BD150
:10083000F048006801214904084000285BD0606846
:10084000002858D10120E0E700BF012109046068B9
:10085000884205D1E74800680843E649086021E07E
:1008600005210904606888420ED1E2480068012130
:1008700089040843DF49086008460068012109042B
:100880000843DC4908600DE0DA48006801210904EA
:100890008843D849086008460068012189048843D4
:1008A000D449086000BF6068002812D0FFF78AFDB5
:1008B000054606E0FFF786FD401B642801D90320AA
:1008C000A3E7CC4800680121490408400028F1D082
:1008D00011E0FFF777FD054606E0FFF773FD401BCB
:1008E000642801D9032090E7C24800680121490427
:1008F00008400028F1D1022120680840022873D165
:10090000BC488068382108400746BA48C068860756
:10091000B60F102F01D1022E01D0002F36D1B548CD
:100920000068012189020840002804D0E0680028FE
:1009300001D1012069E7AF4840687F21090288435F
:10094000616909020843AB494860002F16D1084687
:1009500000680721C902884321690843A549086046
:10096000084600680722D2021040C20A01209040C7
:100970000146A148FFF7B8FBA0490860A0480068FD
:10098000FFF748FD002849D001203EE7E068002835
:100990002BD0984800680721C90288432169084381
:1009A0009449086008460068891508439149086021
:1009B000FFF708FD054606E0FFF704FD401B02288F
:1009C00001D9032021E78B480068012189020840F2
:1009D0000028F1D0874840687F2109028843616977
:1009E000090208438349486018E082480068FF21F3
:1009F000013188437F490860FFF7E4FC054606E0C3
:100A0000FFF7E0FC401B022801D90320FDE67948EE
:100A100000680121890208400028F1D108212068DE
:100A20000840082849D173488068382108401828B0
:100A30000BD170484030006A0221084000283CD0A9
:100A4000A069002839D10120DFE6A06900281AD06A
:100A500068484030006A0121084366494031086215
:100A6000FFF7B0FC054606E0FFF7ACFC401B022890
:100A700001D90320C9E65F484030006A02210840DE
:100A80000028F1D019E05B484030006A400840007F
:100A9000584940310862FFF795FC054606E0FFF72C
:100AA00091FC401B022801D90320AEE6514840309A
:100AB000006A022108400028F1D104212068084082
:100AC00004287CD1002001904A48806838210840E1
:100AD00020280BD147484030C06902210840002837
:100AE0006ED0A06800286BD101208EE64148C06B13
:100AF000010F01208843002810D000BF3D48C06B83
:100B00000121090708433B49C8630846C06B090433
:100B10000840009000BF00BF0120019039480068E4
:100B2000FF2101310840002816D1364800680843EB
:100B300034490860FFF746FC054606E0FFF742FC33
:100B4000401B022801D903205FE62E480068FF21E0
:100B5000013108400028F1D000BFA068012808D169
:100B600024484030C0690121084322494031C8610E
:100B700020E0A06805280FD11E484030C06904213C
:100B800008431C494031C8610846C0690121084337
:100B900018494031C8610DE016484030C06941082D
:100BA000490014484030C161C0690421884311499B
:100BB0004031C86100BFA068002816D001E040E0C5
:100BC0003EE0FFF7FFFB054607E0FFF7FBFB401B9E
:100BD0000D49884201D9032017E606484030C06914
:100BE000022108400028F0D01EE0FFF7EBFB05468D
:100BF00014E00000001002400024F400180000205F
:100C0000100000200070004088130000FFF7DAFB9E
:100C1000401B6449884201D90320F6E56248C06957
:100C2000022108400028F1D10198012808D15E482E
:100C30004038C06B0121090788435B494039C863CC
:100C400000BFE06900285AD05748403880683821F2
:100C5000084010287ED0E069022851D1524840381F
:100C600000680121090688434F4940390860FFF7B1
:100C7000A9FB054606E0FFF7A5FB401B022801D9AA
:100C80000320C2E548484038006801214906084071
:100C90000028F0D1616A206A0843A16A090208436A
:100CA000E16A0843216B08433F494039C9683F4A1C
:100CB000114008433C494039C8600846006801219A
:100CC000090608433849403908600846C0680904E5
:100CD000084335494039C860FFF774FB054606E014
:100CE000FFF770FB401B022801D903208DE52E4839
:100CF000403800680121490608400028F0D04EE045
:100D000029484038006801210906884326494039AE
:100D100008600846C06880088000C8600846C0684F
:100D20002349084020494039C860FFF74BFB05467E
:100D300007E0FFF747FB401B022802D9032064E5C8
:100D400008E0194840380068012149060840002899
:100D5000EFD124E0E069012800D156E5124840387F
:100D6000C668B107890F206A814216D170203040D1
:100D7000616A884211D17F2000023040A16A0902D5
:100D800088420AD11F2040043040E16A884204D1E1
:100D9000710F4907206B814201D0012035E5002009
:100DA00033E5000088130000401002408C80C11F12
:100DB000FFFFFEEF044909680322520291430143F9
:100DC000014A1160704700000000014070B5044600
:100DD0002546681E0949884201D901200CE0681E99
:100DE000074948610321081F00F0AEF800200449BC
:100DF000886107200861002070BD0000FFFFFF0030
:100E000000E000E000BFFEE700B587B0142102A8B3
:100E1000FFF787F900BF2A48406B20210843284983
:100E200048630846406B20210840019000BF00BF86
:100E300000BF2348406B012108432149486308460D
:100E4000406BC007C00F019000BF00BF00BF084645
:100E5000406B042108431A4948630846406B04214B
:100E60000840019000BF00BF002221214901052058
:100E70000007FFF7A0FA2020029001200390002035
:100E800004900220059002A905200007FFF7A2F9AF
:100E9000002230210B48FFF78EFA302002901120FB
:100EA0000390002004900220059002A90548FFF756
:100EB00091F9012230210348FFF77DFA07B000BD08
:100EC000001002400008005070477047704710B58E
:100ED000FFF77EFA10BD00B591B0342104A8FFF7EA
:100EE00020F9002000900190029003900120400220
:100EF000FFF7FEFA02200490C0010790002008903E
:100F00004020099000200B9004A8FFF779FC0028EE
:100F100001D0FFF729F907200090002001900290EE
:100F2000039000216846FFF70FFB002801D0FFF770
:100F30001BF911B000BD00000120C0060149886006
:100F40007047000000ED00E010B5002819DB1A4AD8
:100F500003231B02D21883089B00D2588307DC0EA0
:100F6000FF23A3409A438B071B0E8407E40EA34084
:100F70001A43114B032424021B198408A4001A519C
:100F800018E00E4A03071B0F083B9B089B00D25832
:100F90008307DC0EFF23A3409A438B071B0E8407B5
:100FA000E40EA3401A43054B0407240F083CA40891
:100FB000A4001A5110BD000000E100E01CED00E0AB
:100FC00002E008C8121F08C1002AFAD17047704712
:100FD000002001E001C1121F002AFBD17047000070
:100FE00010B50122202105200007FFF7E4F90020B9
:100FF0000949086004E008480068401C0649086088
:101000000548006805498842F5DB002220210520BB
:101010000007FFF7D0F910BD080000203075000070
:1010200000B585B014216846FFF77BF80022012146
:10103000890205200007FFF7BEF901208002009019
:101040000948019001200290694605200007FFF73A
:10105000C1F8002211460720FFF740FA0720FFF7EA
:101060002FFA05B000BD0000000021100120800211
:101070000149C860704700000018024010B5002008
:101080001549086004E014480068401C12490860D3
:101090001148006811498842F5DB20211048FFF70C
:1010A00081F9002815D000200B49086004E00A48A7
:1010B0000068401C084908600748006809498842E0
:1010C000F5DB20210648FFF76DF9002801D101204A
:1010D00010BD0020FCE700000800002050C3000005
:1010E0000008005076C5000010B520210448FFF725
:1010F00059F9002801D0012010BD0020FCE70000B4
:1011000000080050FFF770F9FFF7E5FEFFF77CFEDF
:10111000FFF786FF00BFFEE70000000000000000B0
:1011200000000000000000000000000000000000BF
:1011300000000000000000000100000002000000AC
:10114000030000000400000006000000070000008B
:10115000080000000900000000000000000000007E
:10116000000000000000000001000000020000007C
:101170000300000004000000981100080000002097
:101180001C000000C00F0008B41100081C00002063
:1011900004040000D00F00080A000000A0A1000015
:1011A000000000000000000004000000010000003A
:0411B0000024F40023
:04000005080000B936
:00000001FF
