:020000040800F2
:1000000010040020CD000008DD0A00082D0A0008B9
:1000100000000000000000000000000000000000E0
:10002000000000000000000000000000E10A0008DD
:100030000000000000000000DF0A0008E30A0008DA
:10004000DF00000800000000DF000008DF000008FB
:10005000DF000008DF000008DF0000085D01000885
:1000600000000000DF000008DF000008DF000008DB
:10007000DF000008DF000008DF00000800000000CB
:10008000DF000008DF000008DF000008DF000008D4
:10009000DF000008DF000008DF000008DF000008C4
:1000A000DF000008DF000008DF000008DF000008B4
:1000B000DF000008DF0000080348854600F03CF838
:1000C00000480047110C0008100400200448804735
:1000D00004480047FEE7FEE7FEE7FEE7FEE7FEE72F
:1000E000350B0008B900000830B50B46014600206A
:1000F0002022012409E00D46D5409D4205D31D462E
:100100009540491B2546954040191546521E002D25
:10011000F1DC30BDD2B201E00270401C491EFBD2BE
:1001200070470022F6E710B513460A460446194602
:10013000FFF7F0FF204610BD064C0125064E05E0F6
:10014000E36807CC2B430C3C98471034B442F7D3F8
:10015000FFF7B6FF600C0008800C000810B5012006
:10016000800200F00DF810BD10B52021034800F00A
:10017000B7F8002801D000F016FD10BD00080050AF
:1001800070B5084D0446E868204203D0EC60204674
:1001900000F00AF82869204203D02C612046FFF7BE
:1001A000E3FF70BD0018024070470000F0B5002367
:1001B00088E001229A409446144022007ED04C6888
:1001C000022C01D0122C0CD1DC08A40027183C6AA8
:1001D0005D07ED0E0F26AE40B4430E69AE402643D8
:1001E0003E6205685E000324B4400F79A543BF0753
:1001F000BF0FB7402F4307604D68012D05D0022D7A
:1002000003D0112D01D0122D0ED18568CF68A543E2
:10021000B7402F43876047686546AF430D79ED06C9
:10022000ED0F9D403D434560C568A5438C68B440D3
:100230002C43C4604C68E40043D59D08244CAD00B9
:100240002F193C6E9D07EE0E0F25B540AC430525DA
:100250002D07A84201D100250FE01E4DA84201D173
:1002600001250AE01C4DA84201D1022505E01B4DE5
:10027000A84201D1032500E00525B5402543144CD3
:100280003D66134D80352E684F689643FF0300D5B9
:1002900016432E606E684F689643BF0300D5164321
:1002A0006E6025684E689543F60200D515432560BB
:1002B00065684E689543B60202D500E001E015433B
:1002C00065605B1C0A681446DA4000D071E7F0BD37
:1002D000001802400004005000080050000C0050BC
:1002E0000069084000D001207047002A01D08161D8
:1002F00070478162704700000148806870470000C5
:1003000000000020024881684268891881607047B7
:100310000000002010B50848002401688215114330
:100320000160204600F00AF8002801D0012401E015
:1003300000F028F8204610BD0020024070B50F4E96
:10034000002471680546002915D07D20C000FFF704
:10035000CBFE01460A480068FFF7C6FE00F04EFBE0
:10036000002808D1042D06D200222946401E00F0A4
:100370002FF8356000E00124204670BD0000002009
:100380000C00002008B50B480168012211430160F0
:1003900000681040009007484038C26B01040A43CF
:1003A000C263C06B084000900320400200F01CFBB9
:1003B00008BD000040100240002805DBC106C90E40
:1003C00001208840014908607047000000E100E01A
:1003D00010B500F0B7FB10BD10B50F4C216803221B
:1003E0005202914301432160C11FFF39FA390ED1F6
:1003F0000A480621006848430949FFF775FE401C7A
:1004000002E0002805D0401E61694905F9D40020AA
:1004100010BD032010BD0000007000400C00002043
:1004200040420F00F8B50F46060043D04D4D2868F6
:100430004007400FB84213D22868C008C0003843B4
:100440002860FFF759FF044605E0FFF755FF011B41
:100450004548814261D828684007400FB842F4D12E
:100460003068424C81070DD5400704D5A0680721AC
:1004700009030843A060A0680F2109028843B168FE
:100480000843A0603078C00732D0706801280AD0D5
:1004900002280BD000280FD03449403103280ED059
:1004A000C969890704E02168890301E0216889019D
:1004B000002906DB0120F8BD21684905F8E7096A33
:1004C000EFE7A168C908C9000143A160FFF714FF65
:1004D000009006E0FFF710FF0099411A2248814280
:1004E0001BD8A068382108407168C9008842F1D142
:1004F00028684007400FB84217D91A480168C90850
:10050000C90039430160FFF7F7FE054607E0FFF732
:10051000F3FE411B1448814201D90320F8BD114864
:1005200000684007400FB842F1D13078400706D547
:10053000A068072109038843F1680843A06000F020
:100540001DF8A1683C2289091140094A515CC9067D
:10055000C90EC8400749086007480068FFF7EEFE6B
:10056000F8BD000000200240881300000010024087
:10057000200C00080C0000200000002010B5204CCA
:10058000A068204A8006400F16D0A0688006410F60
:10059000501001290FD0A1688906490F022912D0F5
:1005A000A0688006400F042823D0A0688006400F72
:1005B000032821D0002010BD206801218004400FB5
:1005C0008140104612E0E1688B07E1689B0F490605
:1005D000490F491C032B00D01046FFF785FDE16849
:1005E0004904490E4843E168490F491CFFF77CFD67
:1005F00010BD0120C00310BD7D20000210BD000011
:10060000001002400024F400F8B504007ED02078E9
:100610003827C007EB4D002846D0A868E968384065
:100620008907890F102802D008280BD001E0032980
:1006300008D001206268000482420AD1296801437F
:10064000296015E0286880032ED560680028DDD079
:100650002AE0052301211B0489049A422A6802D159
:100660000A432A60EAE782432A60286888432860B0
:10067000606800280CD0FFF73FFE064604E0FFF755
:100680003BFE801B642873D828688003F7D50BE0F5
:10069000FFF732FE064604E0FFF72EFE801B6428BB
:1006A000F1D828688003F7D42078800769D5A86836
:1006B000E96838408A070721920FC902102802D042
:1006C000002813D001E0022A10D0E068002846D0AC
:1006D000286888432169084328602868FF21013180
:1006E00008432860FFF708FE06462CE02A685205FA
:1006F00002D5E268002A89D06A687F231B029A43E8
:1007000063691B021A436A60002800E08DE00ED185
:1007100028688843216908432860286801218004EB
:10072000400F8140A848FFF7DFFCA8490860A848AF
:100730000068FFF703FE002877D122E0FFF7DCFD19
:10074000801B02289FD828684005F7D568687F215C
:1007500009028843616909020843686011E0296859
:10076000FF20013081432960FFF7C6FD064605E002
:1007700098E0FFF7C1FD801B022884D82868400557
:10078000F7D42078934E00072ED5A8688006400F36
:1007900003280AD0A0690028306A16D00121084336
:1007A0003062FFF7A9FD07460BE0306A80071BD5D2
:1007B000A06900289FD017E0FFF79EFDC01B02280C
:1007C00070D8306A8007F7D50EE0400840003062EC
:1007D000FFF792FD074604E0FFF78EFDC01B0228DD
:1007E00060D8306A8007F7D4207840076CD5A868B5
:1007F00000278006400F042818D0E86BC00008D4FA
:10080000E96B012000070143E963E96B014001271F
:10081000009171480168C90519D401688215114316
:100820000160FFF769FD00900DE083E0F06980074B
:100830004AD5A06800287DD046E0FFF75DFD00990D
:10084000401A02282ED864480068C005F5D5A16872
:10085000012910D004200529F16911D04908490067
:10086000F161F1698143F161A068002816D0FFF7BA
:1008700043FD00900EE0F06901210843F061F3E7C9
:100880000143F161F7E7FFF737FD0099411A53483B
:1008900081426DD8F0698007F5D50EE0FFF72CFD99
:1008A000009007E064E0FFF727FD0099411A4B48EC
:1008B00081425DD8F0698007F5D4002F04D0E96B40
:1008C000012000078143E963E069002877D0A96827
:1008D0008906490F022951D00126360602282868C8
:1008E0000DD0B0432860E86880088000E860E868C0
:1008F0003B490840E860FFF7FFFC04463AE0B0439C
:100900002860FFF7F9FC074604E0FFF7F5FCC01B81
:1009100002282DD828688001F7D4616A206AA26A6B
:100920000843E16A120211430843216B0843E96856
:100930002C4A00E041E011400843E8602868304359
:100940002860E868012109070843E860FFF7D4FC44
:10095000044604E0FFF7D0FC001B022808D82868F2
:100960008001F7D52BE0FFF7C7FC001B022801D957
:100970000320F8BD28688001F5D420E00128F8D0D4
:10098000E868226A8107890F914216D17021626A54
:100990000140914211D17F21A26A09020140120255
:1009A00091420AD11F214904E26A0140914204D1D7
:1009B000400F216B4007884201D00120F8BD002084
:1009C000F8BD0000001002400024F4000C000020DC
:1009D000000000204010024000700040881300001A
:1009E000FFFFFEEF8C80C11F03490A6803235B02EF
:1009F0009A4302430A60704700000140094910B55C
:100A0000401E884201D9012010BD074C60610321BE
:100A1000081F00F097F80020A06107202061002047
:100A200010BD0000FFFFFF0000E000E0FEE7000057
:100A3000F0B587B014216846FFF773FB2448416B7B
:100A4000202421434163416B21400591416B0125E5
:100A500029434163416B29400591426B04210A43BC
:100A60004263406B0526084021213607059000228D
:100A700049013046FFF739FC164F00223021384635
:100A8000FFF733FC019500940024022569463046A7
:100A900003950294FFF78AFB30200090112001AAF1
:100AA00031C269463846FFF781FB680200900A4868
:100AB0000190694602943046FFF778FB0022114608
:100AC0000720FFF785FC0720FFF776FC07B0F0BD95
:100AD00000100240000800500000211070477047CD
:100AE000704710B5FFF70EFC10BD10B592B0342161
:100AF0006846FFF716FB002401200D940E940F9416
:100B000040021094FFF768FC02200090C00103909F
:100B100040200590049407946846FFF775FD072070
:100B20000D900E940F94002110940DA8FFF77AFCFD
:100B300012B010BD01200249C00688607047000055
:100B400000ED00E08307FF22DB0E9A408907090EC3
:100B50009940002808DB830809489B001B18186887
:100B600090430843186070470007000F0838830857
:100B700004489B001B18D86990430843D86170470C
:100B800000E400E000ED00E002E008C8121F08C128
:100B9000002AFAD170477047002001E001C1121FFE
:100BA000002AFBD1704710B505242407012220211B
:100BB0002046FFF79AFB00F023F800222021204670
:100BC000FFF793FB00F01CF8012220212046FFF7DD
:100BD0008CFB00F015F8002220212046FFF785FB52
:100BE00000F00EF8012220212046FFF77EFB00F0E6
:100BF00007F8002220212046FFF777FB10BD0000F8
:100C000002490020401C8842FCD37047A0860100A6
:100C1000FFF780FBFFF769FFFFF70AFFFEE7000021
:100C200000000000000000000000000000000000C4
:100C300000000000000000000000000000000000B4
:100C4000010000000200000003000000040000009A
:100C50000600000007000000080000000900000076
:100C6000800C00080000002010000000880B000825
:100C7000900C00081000002000040000980B0008F1
:100C80000400000001000000000000000024F40047
:04000005080000B936
:00000001FF
